{
  "contractName": "Faucet",
  "abi": [
    {
      "inputs": [],
      "stateMutability": "nonpayable",
      "type": "constructor"
    },
    {
      "inputs": [],
      "name": "numOfFunders",
      "outputs": [
        {
          "internalType": "uint256",
          "name": "",
          "type": "uint256"
        }
      ],
      "stateMutability": "view",
      "type": "function",
      "constant": true
    },
    {
      "inputs": [],
      "name": "owner",
      "outputs": [
        {
          "internalType": "address",
          "name": "",
          "type": "address"
        }
      ],
      "stateMutability": "view",
      "type": "function",
      "constant": true
    },
    {
      "stateMutability": "payable",
      "type": "receive",
      "payable": true
    },
    {
      "inputs": [],
      "name": "emitLog",
      "outputs": [
        {
          "internalType": "bytes32",
          "name": "",
          "type": "bytes32"
        }
      ],
      "stateMutability": "pure",
      "type": "function",
      "constant": true
    },
    {
      "inputs": [],
      "name": "addFunds",
      "outputs": [],
      "stateMutability": "payable",
      "type": "function",
      "payable": true
    },
    {
      "inputs": [],
      "name": "test1",
      "outputs": [],
      "stateMutability": "nonpayable",
      "type": "function"
    },
    {
      "inputs": [
        {
          "internalType": "uint256",
          "name": "withdrawAmount",
          "type": "uint256"
        }
      ],
      "name": "withdraw",
      "outputs": [],
      "stateMutability": "nonpayable",
      "type": "function"
    },
    {
      "inputs": [],
      "name": "getAllFunders",
      "outputs": [
        {
          "internalType": "address[]",
          "name": "",
          "type": "address[]"
        }
      ],
      "stateMutability": "view",
      "type": "function",
      "constant": true
    },
    {
      "inputs": [
        {
          "internalType": "uint8",
          "name": "index",
          "type": "uint8"
        }
      ],
      "name": "getFunderAtIndex",
      "outputs": [
        {
          "internalType": "address",
          "name": "",
          "type": "address"
        }
      ],
      "stateMutability": "view",
      "type": "function",
      "constant": true
    }
  ],
  "bytecode": "0x608060405234801561001057600080fd5b50336000806101000a81548173ffffffffffffffffffffffffffffffffffffffff021916908373ffffffffffffffffffffffffffffffffffffffff160217905550336000806101000a81548173ffffffffffffffffffffffffffffffffffffffff021916908373ffffffffffffffffffffffffffffffffffffffff160217905550610a3a806100a06000396000f3fe60806040526004361061007f5760003560e01c80638da5cb5b1161004e5780638da5cb5b14610133578063a26759cb1461015e578063af7f2c9b14610168578063f42c13bf1461019357610086565b80630a93cf331461008b5780632e1a7d4d146100c85780636b59084d146100f15780636fbbb55d1461010857610086565b3661008657005b600080fd5b34801561009757600080fd5b506100b260048036038101906100ad91906105cf565b6101be565b6040516100bf919061063d565b60405180910390f35b3480156100d457600080fd5b506100ef60048036038101906100ea919061068e565b6101fe565b005b3480156100fd57600080fd5b50610106610295565b005b34801561011457600080fd5b5061011d610325565b60405161012a9190610779565b60405180910390f35b34801561013f57600080fd5b5061014861041f565b604051610155919061063d565b60405180910390f35b610166610443565b005b34801561017457600080fd5b5061017d610563565b60405161018a91906107aa565b60405180910390f35b34801561019f57600080fd5b506101a8610569565b6040516101b591906107de565b60405180910390f35b6000600360008360ff16815260200190815260200160002060009054906101000a900473ffffffffffffffffffffffffffffffffffffffff169050919050565b80670de0b6b3a764000081111561024a576040517f08c379a00000000000000000000000000000000000000000000000000000000081526004016102419061087c565b60405180910390fd5b3373ffffffffffffffffffffffffffffffffffffffff166108fc839081150290604051600060405180830381858888f19350505050158015610290573d6000803e3d6000fd5b505050565b60008054906101000a900473ffffffffffffffffffffffffffffffffffffffff1673ffffffffffffffffffffffffffffffffffffffff163373ffffffffffffffffffffffffffffffffffffffff1614610323576040517f08c379a000000000000000000000000000000000000000000000000000000000815260040161031a9061090e565b60405180910390fd5b565b6060600060015467ffffffffffffffff8111156103455761034461092e565b5b6040519080825280602002602001820160405280156103735781602001602082028036833780820191505090505b50905060005b600154811015610417576003600082815260200190815260200160002060009054906101000a900473ffffffffffffffffffffffffffffffffffffffff168282815181106103ca576103c961095d565b5b602002602001019073ffffffffffffffffffffffffffffffffffffffff16908173ffffffffffffffffffffffffffffffffffffffff1681525050808061040f906109bb565b915050610379565b508091505090565b60008054906101000a900473ffffffffffffffffffffffffffffffffffffffff1681565b6000339050600260008273ffffffffffffffffffffffffffffffffffffffff1673ffffffffffffffffffffffffffffffffffffffff16815260200190815260200160002060009054906101000a900460ff16610560576000600160008154809291906104ae906109bb565b9190505590506001600260008473ffffffffffffffffffffffffffffffffffffffff1673ffffffffffffffffffffffffffffffffffffffff16815260200190815260200160002060006101000a81548160ff021916908315150217905550816003600083815260200190815260200160002060006101000a81548173ffffffffffffffffffffffffffffffffffffffff021916908373ffffffffffffffffffffffffffffffffffffffff160217905550505b50565b60015481565b60007f48656c6c6f000000000000000000000000000000000000000000000000000000905090565b600080fd5b600060ff82169050919050565b6105ac81610596565b81146105b757600080fd5b50565b6000813590506105c9816105a3565b92915050565b6000602082840312156105e5576105e4610591565b5b60006105f3848285016105ba565b91505092915050565b600073ffffffffffffffffffffffffffffffffffffffff82169050919050565b6000610627826105fc565b9050919050565b6106378161061c565b82525050565b6000602082019050610652600083018461062e565b92915050565b6000819050919050565b61066b81610658565b811461067657600080fd5b50565b60008135905061068881610662565b92915050565b6000602082840312156106a4576106a3610591565b5b60006106b284828501610679565b91505092915050565b600081519050919050565b600082825260208201905092915050565b6000819050602082019050919050565b6106f08161061c565b82525050565b600061070283836106e7565b60208301905092915050565b6000602082019050919050565b6000610726826106bb565b61073081856106c6565b935061073b836106d7565b8060005b8381101561076c57815161075388826106f6565b975061075e8361070e565b92505060018101905061073f565b5085935050505092915050565b60006020820190508181036000830152610793818461071b565b905092915050565b6107a481610658565b82525050565b60006020820190506107bf600083018461079b565b92915050565b6000819050919050565b6107d8816107c5565b82525050565b60006020820190506107f360008301846107cf565b92915050565b600082825260208201905092915050565b7f43616e6e6f74207769746864726177206d6f7265207468616e2031206574686560008201527f7200000000000000000000000000000000000000000000000000000000000000602082015250565b60006108666021836107f9565b91506108718261080a565b604082019050919050565b6000602082019050818103600083015261089581610859565b9050919050565b7f4f6e6c79206f776e65722063616e2063616c6c20746869732066756e6374696f60008201527f6e00000000000000000000000000000000000000000000000000000000000000602082015250565b60006108f86021836107f9565b91506109038261089c565b604082019050919050565b60006020820190508181036000830152610927816108eb565b9050919050565b7f4e487b7100000000000000000000000000000000000000000000000000000000600052604160045260246000fd5b7f4e487b7100000000000000000000000000000000000000000000000000000000600052603260045260246000fd5b7f4e487b7100000000000000000000000000000000000000000000000000000000600052601160045260246000fd5b60006109c682610658565b91507fffffffffffffffffffffffffffffffffffffffffffffffffffffffffffffffff8214156109f9576109f861098c565b5b60018201905091905056fea2646970667358221220218ad35219354e2ff35f114b21d1d75c4e0cf9d7fcdf570e532e70e39680fe4164736f6c634300080c0033",
  "immutableReferences": {},
  "source": "// SPDX-License-Identifier: MIT\npragma solidity >=0.4.22 <0.9.0;\n\nimport \"./Owned.sol\";\nimport \"./Logger.sol\";\nimport \"./IFaucet.sol\";\n\ncontract Faucet is Owned, Logger, IFaucet {\n    uint public numOfFunders;\n\n    mapping(address => bool) private funders;\n    mapping(uint => address) private lutFunders;\n\n    constructor() {\n        owner = msg.sender;\n    }\n\n    // modifier to inject withdraw limit\n    modifier limitWithdraw(uint withdrawAmount) {\n        require(\n            withdrawAmount <= 1000000000000000000,\n            \"Cannot withdraw more than 1 ether\"\n        );\n        _;\n    }\n\n    receive() external payable {}\n\n    function emitLog() public pure override returns (bytes32) {\n        return \"Hello\";\n    }\n\n    //adding ether into smart contract\n    function addFunds() external payable override {\n        address funder = msg.sender;\n\n        if (!funders[funder]) {\n            uint index = numOfFunders++;\n            funders[funder] = true;\n            lutFunders[index] = funder;\n        }\n    }\n\n    function test1() external onlyOwner {\n        // admin function test onyl admin can ahve access\n    }\n\n    function withdraw(uint withdrawAmount)\n        external\n        override\n        limitWithdraw(withdrawAmount)\n    {\n        payable(msg.sender).transfer(withdrawAmount);\n    }\n\n    function getAllFunders() external view returns (address[] memory) {\n        address[] memory _funders = new address[](numOfFunders);\n\n        for (uint i = 0; i < numOfFunders; i++) {\n            _funders[i] = lutFunders[i];\n        }\n\n        return _funders;\n    }\n\n    function getFunderAtIndex(uint8 index) external view returns (address) {\n        return lutFunders[index];\n    }\n}\n\n/**\n\nconst instance = await Faucet.deployed()\n\ninstance.withdraw(\"500000000000000000\", {from: accounts[1]})\ninstance.withdraw(\"1000000000000000000\", {from: accounts[2]})\ninstance.withdraw(\"2000000000000000000\", {from: accounts[1]})\n\ninstance.addFunds({from: accounts[0], value: \"500000000000000000\"})\ninstance.addFunds({from: accounts[1], value: \"1000000000000000000\"})\ninstance.addFunds({from: accounts[3], value: \"4000000000000000000\"})\ninstance.getFunderAtIndex(0)\n\n\ninstance.getAllFunders()\n */\n",
  "sourcePath": "/Users/bgskinner3/blockchain/faucet/contracts/FacucetContract.sol",
  "compiler": {
    "name": "solc",
    "version": "0.8.12+commit.f00d7308.Emscripten.clang"
  },
  "schemaVersion": "3.4.13",
  "updatedAt": "2023-04-24T18:37:44.520Z",
  "networkType": "ethereum",
  "devdoc": {
    "kind": "dev",
    "methods": {},
    "version": 1
  },
  "userdoc": {
    "kind": "user",
    "methods": {},
    "version": 1
  }
}